:020000040800F2
:100000000010002031150008791500087915000846
:10001000791500087915000879150008000000001E
:10002000000000000000000000000000791500083A
:1000300079150008000000007915000879150008FE
:1000400000000000000000000000000000000000B0
:1000500000000000000000000000000000000000A0
:100060000000000000000000000000000000000090
:100070000000000000000000000000000000000080
:100080000000000000000000000000000000000070
:100090000000000000000000000000000000000060
:1000A0000000000000000000000000000000000050
:1000B0000000000000000000000000000000000040
:1000C0000000000000000000000000000000000030
:1000D0000000000000000000000000000000000020
:1000E0000000000000000000000000000000000010
:1000F0000000000000000000000000000000000000
:1001000000000000000000000000000000000000EF
:1001100000000000000000000000000000000000DF
:1001200000000000000000000000000000000000CF
:1001300000000000000000000000000000000000BF
:1001400000000000000000000000000000000000AF
:10015000000000000000000000000000000000009F
:10016000000000000000000000000000000000008F
:10017000000000000000000000000000000000007F
:08018000000000000000000077
:100188000448054B10B5834203D0044B002B00D024
:10019800984710BD480200204802002000000000D7
:1001A80006480749091A8B10C90FC91810B5491014
:1001B80003D0044B002B00D0984710BD4802002004
:1001C800480200200000000010B5074C2378002BDF
:1001D80009D1FFF7D5FF054B002B02D0044800E0FA
:1001E80000BF0123237010BD48020020000000005A
:1001F8007C150008054B10B5002B03D004490548B1
:1002080000E000BFFFF7CCFF10BDC04600000000B3
:100218004C0200207C15000802B4714649084900C8
:10022800095C49008E4402BC7047C046002243085E
:100238008B4274D303098B425FD3030A8B4244D3A6
:10024800030B8B4228D3030C8B420DD3FF220902E8
:1002580012BA030C8B4202D31212090265D0030BA7
:100268008B4219D300E0090AC30B8B4201D3CB039D
:10027800C01A5241830B8B4201D38B03C01A5241DF
:10028800430B8B4201D34B03C01A5241030B8B42E1
:1002980001D30B03C01A5241C30A8B4201D3CB02CC
:1002A800C01A5241830A8B4201D38B02C01A5241B1
:1002B800430A8B4201D34B02C01A5241030A8B42B4
:1002C80001D30B02C01A5241CDD2C3098B4201D3CC
:1002D800CB01C01A524183098B4201D38B01C01A4A
:1002E800524143098B4201D34B01C01A52410309C1
:1002F8008B4201D30B01C01A5241C3088B4201D370
:10030800CB00C01A524183088B4201D38B00C01A1C
:10031800524143088B4201D34B00C01A5241411A43
:1003280000D20146524110467047FFE701B5002050
:1003380000F006F802BDC0460029F7D076E77047FE
:100348007047C04670B50C4D0C4E761BB61005D0E4
:10035800002408CD01349847A642FAD101F00AF9E1
:10036800074D084E761BB61005D0002408CD013481
:100378009847A642FAD170BDBC150008BC15000804
:10038800BC150008C0150008F8B5070000F032FADF
:100398000023424C424E9A5D1A550133102BFAD174
:1003A800220000231032F95C99540133102BFAD142
:1003B80038002200002310302032C15C99540133E8
:1003C800102BFAD12100002320315A5CE25401336A
:1003D800102BFAD1200001F0A2F820000023314DA3
:1003E8001030E25C195C4A40EA540133102BF8D112
:1003F80022002000002310322030195C9954013368
:10040800102BFAD12200002320372032F95C9954AE
:100418000133102BFAD12100002320315A5CE25419
:100428000133102BFAD12000270001F078F80023BF
:100438001D481037E25CD95D4A40C2540133102B85
:10044800F8D1E97F4A1E0F2A1AD90022174B1A60E1
:100458000023164C6268934205DAE85CF15C884236
:1004680017D00023236000F0CDF923682200002B69
:1004780011D008321021722000F08CF80020F8BD4D
:100488000F225B1A845C8C42DFD1013A9A42F9DA76
:10049800DEE70133DFE71832ECE7C04664020020EC
:1004A8009415000864040020740400200000002053
:1004B80010B500F0F3F800F01DF900F05BF901F059
:1004C80029F80648283001F026F830217020044A1F
:1004D80000F05AF800F07AF8FCE7C0460000002067
:1004E8009103000870B50024844201DB00201FE05E
:1004F8004D780B782E00303EF6B2092E0CD81655E2
:100508001D00303DEEB2092E15D8135D2D011D4397
:10051800155501340231E7E72E00413E052E02D879
:10052800373D1555ECE72E00613E052E01D9012017
:1005380070BD573DF5E71D00413D052D05D8373BFA
:10054800155D1B012B431355E3E71D00613D052D88
:10055800EDD8573BF4E70000F0B5094E05003468C4
:1005680001200F2C0BDCFF2909D8064827013D5430
:10057800C019416082600373002001343460F0BD0B
:10058800940200209802002010B50023FFF7E4FF32
:1005980010BD0000F8B50D0014000F2700F052F947
:1005A8006519AC4203D10A2000F04CF9F8BD237854
:1005B800054E1B09F05C00F045F9237801343B40F7
:1005C800F05C00F03FF9ECE7A6150008F0B5304CF8
:1005D800A54400F01FF92F4B2F491A6800239A42AF
:1005E80004DC07D1C3239B009D44F0BD1C010C5DB6
:1005F800844241D10127284D1C012E19337B3B42EF
:100608001AD000236A46137200F004F984226B465C
:1006180052009B18187000F0FDF80A226B46FF3252
:100628009B18187002AA380042A9FFF75BFF002840
:10063800D8D16B461B7A736000262B195B685B0068
:10064800B3421BD800F0E6F80A2801D00D28C9D11A
:100658002C19656802AA280042A9FFF743FF002861
:10066800C0D1E9B2A36802A8984701AA1070012175
:100678007A20FFF78FFFB5E70133B0E700F0CAF83B
:100688000A28AFD00D28ADD042ABF0540136D4E7DC
:10069800F4FCFFFF9402002098020020F0B5902798
:1006A800002401250326042397B0FF05380005A977
:1006B800059306950794089600F046FB102305A9B4
:1006C8003800059306950794089600F03DFB05232E
:1006D8000AA80B930A960D94139400F0C9F80723FF
:1006E800210001A8019302950394049400F0A2FA52
:1006F80017B0F0BD802170B51B4C8902626988B0C3
:100708000A436261636990200B400193019BC023F7
:10071800DB00012503260393022303A9C0050493E4
:1007280005950795069600F00FFB8021A269C9017F
:100738000A43A261A3690D480B400293029B236BF5
:10074800B3431D430A4B2563036096231B02436092
:1007580000238360C360036183610C33436100F04D
:100768005DFC08B070BDC04600100240A404002023
:100778000038014080201E4AF0B5516980020143CB
:100788005161536987B003409024009301250026E6
:100798000327009B8023E405200001A9019302950B
:1007A8000396049700F0D0FA1023200001A90193C2
:1007B80002950396049700F0C7FA0423200001A9C4
:1007C800019302950396049700F0BEFA32002000C8
:1007D800802100F06BFB2A002000102100F066FB4E
:1007E8002A000421200000F061FB07B0F0BDC046DC
:1007F80000100240902010B501228021C00500F0B1
:1008080055FB10BD902010B500228021C00500F0D6
:100818004DFB10BD37B508256B46DC1D0122322380
:100828002100064800F02CFC002801D120783EBDAC
:10083800034A136A2B431362EEE7C046A404002060
:100848000038014007B56B460122D91D0870024BDC
:10085800024800F08DFC07BD88130000A4040020A6
:10086800024B1868421C1A607047C0469803002063
:10087800F0B50368050085B0DB072FD42B689B070C
:1008880000D581E02B681B0700D5BCE02B685B070F
:1008980000D5DFE02B68DB061AD56A690423B54C5E
:1008A800012A00D04AE1616B02270B436363636B43
:1008B8001A436263FFF7D4FF0600636B3B4200D123
:1008C80035E1F821626BAB698A43DB00134363634C
:1008D800296A002900D059E1002013E00C21A54C19
:1008E80062680A40042A06D063680B40082B0BD1C3
:1008F8006368DB0308D523689B03BFD56B68002BAF
:10090800BCD1012005B0F0BD6B68012B13D1802349
:1009180022685B0213432360FFF7A2FF80270600CB
:10092800BF0223683B42A9D1FFF79AFF801B6428C6
:10093800F7D90320E6E7002B16D123688E4A8027D3
:100948001340236023688D4ABF0213402360FFF7DA
:1009580087FF060023683B4200D18FE7FFF780FF3F
:10096800801B6428F6D9E4E7052B05D1802322688B
:10097800DB0213432360CAE723687F4A13402360DE
:1009880023687E4A1340C6E70C227A4C63681342F8
:1009980006D063681340082B10D16368DB030DD4BD
:1009A80023689B0702D5EB68012BAAD1F82122689E
:1009B8002B698A43DB001343236063E7EA6801235A
:1009C800002A0FD02268022713432360FFF748FF4D
:1009D800060023683B42E9D1FFF742FF801B02284B
:1009E800F7D9A6E7226802279A432260FFF738FF63
:1009F800060023683B4200D144E7FFF731FF801B24
:100A08000228F6D995E7EA6901235A4C002A10D042
:100A1800626A022713436362FFF722FF0600636AD4
:100A28003B4200D032E7FFF71BFF801B0228F6D9B4
:100A38007FE7626A02279A436262FFF711FF0600A6
:100A4800636A3B4200D121E7FFF70AFF801B0228B7
:100A5800F6D96EE780220021464C5205E3690091E1
:100A6800134208D1E3691343E361E3691340039335
:100A7800039B012300938027414E7F0033683B424C
:100A880006D0AB68012B13D1226A1343236230E0EE
:100A980033683B433360FFF7E3FE019033683B4222
:100AA800EFD1FFF7DDFE019BC01A6428F6D940E7B5
:100AB8000122002B14D1236A022793432362236A5D
:100AC800033293432362FFF7CBFE0600236A3B42BF
:100AD80016D0FFF7C5FE2B4B801B9842F6D928E7A6
:100AE800052B16D1216A013B0B432362236A1A4363
:100AF8002262FFF7B5FE02270600236A3B420FD0A9
:100B0800009B012B00D0C5E6E3691F4A1340E3614F
:100B1800C0E6236A934304222362236A9343B5E71A
:100B2800FFF79EFE174B801B9842E6D901E7FFF7B7
:100B380097FE801B022800D8BFE6FAE6053203D1EB
:100B4800626B9A436263BCE6626B0227134301221D
:100B58006363636B93436363FFF782FE0600636B13
:100B68003B4200D1B4E6FFF77BFE801B0228F6D992
:100B7800DFE6C04600100240FFFFFEFFFFFFFBFF5D
:100B88000070004088130000FFFFFFEF0C22264C86
:100B9800012063681340082B00D1B3E62368234A79
:100BA8001340236002292FD1FFF75AFE8027060041
:100BB800BF0423683B4221D10F22E36A8026934376
:100BC800EA6AB6041343E362696AAB6A62680B4374
:100BD80017490A4013436360802322685B04134368
:100BE8002360FFF73DFE05002368334200D073E61B
:100BF800FFF736FE401B0228F6D99AE6FFF730FECB
:100C0800801B0228D5D994E6FFF72AFE8026050026
:100C1800B6042368334200D15EE6FFF721FE401B8D
:100C28000228F6D985E6C04600100240FFFFFFFE05
:100C3800FFFFC2FFF7B501223E4C050023680F00F5
:100C480013408B4212D32A68930719D4D3071FD4B1
:100C5800012322681A40BA425DD82B685B0761D429
:100C6800E122354BD20300201A6008E02368934341
:100C78000B432360236813408B42E4D00120FEBD60
:100C8800F0202E494B688343A86803434B60DDE797
:100C98002A4E6A683368012A1AD19B03EED50321CC
:100CA80073688B4313437360FFF7DAFD6B68019039
:100CB800012B15D10C2273681340042BC8D0FFF701
:100CC800CFFD019BC01A1E4B9842F3D90320D6E7EB
:100CD800022A02D19B01E2D4D0E79B07DFD4CDE7FB
:100CE800022B12D00C2273681342B1D0FFF7B8FD63
:100CF800019BC01A124B9842F4D9E7E7FFF7B0FD01
:100D0800019BC01A0E4B9842E0D80C22736813401E
:100D1800082BF3D19CE722689A43226022681A4282
:100D28009BD0ABE7054A074953680B40E9680B437A
:100D3800536095E700200240380000200010024070
:100D480088130000FFF8FFFF0023F0B587B00A689A
:100D58001400DC4001D107B0F0BD012614009E400C
:100D680034400294324200D192E04A681500019260
:100D7800102295430395022D0DD107240F251C4001
:100D8800A400A540DA0892008218176AAF430D69DB
:100D9800A5402F43176203225C00A240D543AC460E
:100DA800032507689743019A2A40A240039D3A43C6
:100DB800013D0260012D0FD8624685681540CA685A
:100DC800A2402A4382604568019AB5430126120968
:100DD80032409A402A4342606546C2682A408D687C
:100DE800A54080242A43C260019A640522424FD05C
:100DF80001250F27274A94692C43946192699C081E
:100E08002A4002351D40AD00AF400592059A224A9E
:100E1800A400A418A6680022BE439027FF05B84284
:100E28000CD01E4F0132B84208D01D4F0132B842D3
:100E380004D01C4F0132B84200D00232AA403243DB
:100E4800A260194A029C1668029D019FE44335433B
:100E5800FF0301D43500254015605668029D019FA7
:100E68003543BF0301D43500254055609668029D7F
:100E7800019F3543FF0201D4350025409560D568B0
:100E8800029E019F2E43BF0201D425402E00D6604A
:100E980001335CE7001002400000014000040048F4
:100EA80000080048000C004800040140002A01D056
:100EB800816170478162FCE7F8B504000D001700F6
:100EC8001E002268D3692B405B1B59424B41BB4231
:100ED80001D0002018E0069B0133F3D0069B002BBD
:100EE80013D123680C491A6803200A401A609A68CB
:100EF800A331FF318A439A6022002023693213709C
:100F08005370002368342370F8BDFFF7A9FC069BD3
:100F1800801B9842D5D9E4E75FFEFFFF030070B558
:100F28009A681D6904682A435D69C1692A43206873
:100F3800334D0A43284002432260626831481D6AE3
:100F48000240D868024362609A69A0682A432E4D1D
:100F58002840024303208025A2602C4A2D02126BF0
:100F68000240013A022A43D82948805CA94220D18C
:100F780008281BD8FFF750F93E1A051A3E1A1A1A04
:100F880015005968234B4808C018FFF74FF983B27A
:100F9800002019000F221B0791435B0F0B43E360EE
:100FA80070BD5968802348085B02EDE701200023E3
:100FB800EFE708281AD8FFF72FF90F1905190F19A5
:100FC800191914005968144B4808C018FFF72EF96E
:100FD80080B2E0600020E3E75968E1234808DB03BA
:100FE800F3E75968802348081B02EEE70120D7E79A
:100FF800A942F1D15968E12348081B04C4E7C04657
:10100800F369FFFFFFCFFFFFFFF4FFFF001002406F
:10101800B61500080048E8010024F40070B5041E65
:1010280001D1012070BD050069352B78DAB2002B9B
:1010380002D1030068331A70242301262B7022681A
:1010480020001368B3431360FFF768FFB042E8D08D
:1010580023680A495A6800200A4008215A609A6899
:101068008A439A601A68164322001E602023E066AD
:101078006A3268342B7013702070D3E7FFF7FFFFD4
:10108800F0B585B0039303006A3317001A7804009B
:101098000D000220202A39D10138002936D0002F2E
:1010A80034D08022A1685201914204D12269002AD9
:1010B80001D105422AD12200683211780220012983
:1010C80024D0012111700022E26622321A70FFF743
:1010D800C7FB23008021A26858331F805F80060069
:1010E800490104338A4215D12269002A10D11F4AC6
:1010F8001A801F8822005A32138898B2002B10D108
:10110800230020226A3368341A70207005B0F0BDBD
:10111800FF22EDE7002AECD12269002AF8D07F22CD
:10112800E6E713882021013B9BB21380039B002232
:10113800009320003300FFF7BFFE002813D1A268F8
:101148002368110080225201914207D12269002AA6
:1011580004D19B8C3B402B800235CBE79B8C3B40DA
:101168002B700135C6E70320D0E7C046FF01000019
:10117800F0B585B003930300693302931B7804002C
:101188000D0016000220202B48D10138002945D037
:10119800002A43D08023A2685B019A4204D12369C4
:1011A800002B01D1014239D1230068331A7802207B
:1011B800012A33D001221A700023029AE3662133F0
:1011C8001370FFF74DFB230050331E805E8080268E
:1011D80007007601210052310B889AB2002B0ED1FC
:1011E800039B4021009320003B00FFF765FE002889
:1011F80013D12023029A6834137020700EE00B88F4
:101208000022013B9BB20B80039B802100932000AE
:101218003B00FFF751FE002802D0032005B0F0BDC7
:10122800A3682268B34208D12369002B05D12B8813
:101238000235DB05DB0D1385CCE72B7801351385EB
:10124800C8E70000224BF7B51B68224A18001100B6
:1012580010301C780C705C784C709C788C70DC7842
:101268000433CC7004318342F3D104211A4801AB12
:10127800160000240C36375DE7540134042CFAD1EB
:10128800013C21420FD19D781E78455D865D5C78D2
:101298005D70124DDF78DE708E08045DAE5DC75D4F
:1012A80074409F701C7014781E7801317440147457
:1012B8005E785478744054749E789478744094742A
:1012C800DE78D47804327440D4732C29D0D1F7BD99
:1012D8009C030020B4030020470100203C000020AC
:1012E8000B4B70B55B680B4A1D0000018018103568
:1012F800190000220C78865C013274400C700131B0
:10130800042AF7D104330430AB42F1D170BDC04692
:101318009C030020B4030020C20903001B20504393
:101328005B005840C0B27047094B10B5596809486E
:101338000A00143110321300103B1C78045D1C7035
:1013480004339342F9D15A1C8A42F4D110BDC046E5
:101358009C030020470000200D4B5B68597A5A7B9C
:1013680059735979597259785A705971997A9A7882
:101378009970997B9A729A799971D9799A73DA786E
:10138800D970D97AD971D97BDA73D9727047C046C6
:101398009C030020F0B50A208FB0FFF7A1FF0926B3
:1013A800FFF7DAFFFFF7C0FF3000FFF799FF4A4B5E
:1013B8005D682B0010330D932B78EF7800936B78D2
:1013C80000980193AB780293FFF7A6FF0690FFF70A
:1013D800A3FF0790FFF7A0FF03900198FFF79CFF7A
:1013E8000890FFF799FF0990FFF796FF049002987D
:1013F800FFF792FF0A90FFF78FFF0400FFF78CFFBB
:1014080005903800FFF788FF0B90FFF785FF0C90D9
:10141800FFF782FF0799069B02004B4003994B4058
:1014280008994B4004994B40059963404B400199FA
:1014380043404B4002994B407B4003992B70089BDB
:101448004B4009994B4004994B400A994B400599E8
:101458004B400C994B40009943404B4002990798E8
:101468004B407B406B70039B5840049B58400A9B41
:101478005840059B44405C400B9B06985C40009B91
:1014880054405C40019B5C40039B7C405840099B56
:101498000C9F5840049BAC705840059B58400B9BD0
:1014A80058404740009B7A405A40019B5A404A4066
:1014B8000D9BEA700435AB4200D07DE7013EF6B2E1
:1014C800002E00D06CE7FFF747FFFFF72DFF300035
:1014D800FFF706FF0FB0F0BD9C0300200023CA5C95
:1014E800C2540133102BFAD17047000010B5024BDB
:1014F8001860FFF7A7FE10BD9C030020010010B57F
:10150800034841600830FFF7E9FFFFF743FF10BDCC
:101518009C030020704710B5FFF7E8FF10BD10B519
:10152800FFF7ECFF10BD0000002103E00B4B5B58F8
:10153800435004310A480B4B42189A42F6D30A4AE0
:1015480002E0002313600432084B9A42F9D300E00A
:1015580000BFFEF7F7FEFEF7ABFFFEE7C415000875
:101568000000002048020020480200201405002046
:10157800FEE70000F8B5C046F8BC08BC9E467047B8
:0C158800F8B5C046F8BC08BC9E46704791
:1015940065734354467B64756D6D795F666C6167F2
:1015A4007D003031323334353637383941424344A3
:0815B400454604080200000096
:0415BC00FD01000825
:0415C000D10100084D
:1015C4000100000011000000596F7520676F74203E
:1015D40069742100000000004E6F70652100000056
:1015E40000000000000000002B7E151628AED2A6D5
:1015F400ABF7158809CF4F3C00127A008D01020425
:1016040008102040801B3652096AD53036A538BFF1
:1016140040A39E81F3D7FB7CE339829B2FFF873461
:101624008E4344C4DEE9CB547B9432A6C2233DEE00
:101634004C950B42FAC34E082EA16628D924B276E3
:101644005BA2496D8BD12572F8F66486689816D42E
:10165400A45CCC5D65B6926C704850FDEDB9DA5E61
:10166400154657A78D9D8490D8AB008CBCD30AF740
:10167400E45805B8B34506D02C1E8FCA3F0F02C1EB
:10168400AFBD0301138A6B3A9111414F67DCEA97AE
:10169400F2CFCEF0B4E67396AC7422E7AD3585E2B2
:1016A400F937E81C75DF6E47F11A711D29C5896F7A
:1016B400B7620EAA18BE1BFC563E4BC6D279209ABE
:1016C400DBC0FE78CD5AF41FDDA8338807C731B1DB
:1016D4001210592780EC5F60517FA919B54A0D2D6E
:1016E400E57A9F93C99CEFA0E03B4DAE2AF5B0C8C4
:1016F400EBBB3C83539961172B047EBA77D626E162
:1017040069146355210C7D637C777BF26B6FC53064
:1017140001672BFED7AB76CA82C97DFA5947F0AD73
:10172400D4A2AF9CA472C0B7FD9326363FF7CC3445
:10173400A5E5F171D8311504C723C31896059A0796
:101744001280E2EB27B27509832C1A1B6E5AA05241
:101754003BD6B329E32F8453D100ED20FCB15B6A5F
:10176400CBBE394A4C58CFD0EFAAFB434D33854505
:10177400F9027F503C9FA851A3408F929D38F5BC3D
:10178400B6DA2110FFF3D2CD0C13EC5F974417C4E3
:10179400A77E3D645D197360814FDC222A908846E0
:1017A400EEB814DE5E0BDBE0323A0A4906245CC272
:1017B400D3AC629195E479E7C8376D8DD54EA96CA9
:1017C40056F4EA657AAE08BA78252E1CA6B4C6E8A3
:1017D400DD741F4BBD8B8A703EB5664803F60E61FF
:1017E4003557B986C11D9EE1F8981169D98E949B2D
:1017F4001E87E9CE5528DF8CA1890DBFE6426841DA
:08180400992D0FB054BB160032
:0400000508001531A9
:00000001FF
